:100000000C949E000C94BB000C94BB000C94BB00A1
:100010000C94BB000C94BB000C94BB000C94BB0074
:100020000C94BB000C94BB000C94E7160C94AB161C
:100030000C946F160C94BB000C94BB000C94BB008A
:100040000C94BB000C94A1160C9497160C948D166E
:100050000C94BB000C94BB000C94BB000C94BB0034
:100060000C94BB000C94BB000C94BB000C94BB0024
:100070000C94BB000C94BB000C94BB000C94BB0014
:100080000C9460160C9483160C9479160C94BB0097
:100090000C94BB000C94BB000C94BB000C94BB00F4
:1000A0000C94BB000C94BB000C94BB0009023E00F6
:1000B000020100C03209040000010202010005240F
:1000C000001001042402060524060001070582032E
:1000D0000800FF09040100020A00000007050402ED
:1000E00040000507058302400005120110010200CF
:1000F000000809128448010001020301180352009C
:100100004100560041003800200052004E004700D8
:1001100020003F22000020034700610062007200BF
:10012000690065006C0020004700750065007200E2
:1001300072006500720000000403090411241FBE50
:10014000CFEFDAE0DEBFCDBF12E0A0E0B1E0E8EA39
:10015000F8E302C005900D92A431B107D9F722E06F
:10016000A4E1B2E001C01D92A236B207E1F70E94FD
:100170009E170C94521C0C9400002091E4003091C6
:10018000E50085E69091EC0090FF06C09091E800B4
:1001900090FF06C080E008959091E80092FDFACFAC
:1001A00090915B02992391F0953091F09091EB0042
:1001B00095FD10C04091E4005091E50024173507EB
:1001C00009F381509A01F1F684E0089582E00895E0
:1001D00083E0089581E0089580915B02843079F591
:1001E0008091570190915801A0915901B0915A0105
:1001F000892B8A2B8B2B19F1809144018F7080936E
:10020000E9008091F3009091F200892798278927CF
:10021000892B11F480E008959091E8008091E80026
:100220008E778093E80095FDF5CF0E94BD00811187
:1002300007C09091E8009E779093E800089582E0CF
:100240000895809144018F708093E9008091E800C7
:1002500080FF04C083E491E00C94EC000895809149
:100260003C0287FF13C08091E80082FF06C08091A6
:10027000E8008B778093E80004C080915B028111D5
:10028000F2CF089580915B028823D9F38091E80032
:1002900080FFF8CF8091E8008E77ECCF982F9730D1
:1002A00020F08093E90081E008959093E900242FE5
:1002B000762F50E0981731F07091EC002091ED000E
:1002C0005091F00021FD02C09F5FE9CF3091EB001B
:1002D0003E7F3093EB003091ED003D7F3093ED0099
:1002E0003091EB0031603093EB007093EC00209381
:1002F000ED005093F0002091EE0027FDE5CF80E067
:100300000895FC019081992319F12481A181B28182
:100310006381892F8F708730E8F442E0223008F043
:1003200046E0E8E0F0E020E0EA17FB0768F02295FD
:10033000207F422B20E4629FB0011124991F99274E
:10034000991F692B0C944E012F5FEE0FFF1FECCF0E
:1003500081E0089580E00895FC018091420290912F
:10036000430286179707A0F06115710529F4909153
:10037000E8009E779093E80090E06115710551F4D4
:10038000911108C08091E80082FF35C080E0089597
:10039000BC01F2CF80915B028823C9F18530C9F19D
:1003A0008091E80083FD31C08091E80082FDEACFB2
:1003B0008091E80080FFE1CF2091F3008091F2006E
:1003C000322F282F6115710519F02830310558F0AA
:1003D00091E02830310509F090E02091E8002E7777
:1003E0002093E800CACF81918093F1006150710998
:1003F0002F5F3F4FE7CF80915B02882341F085302C
:1004000041F08091E80083FFBDCF81E0089582E054
:10041000089583E008951092900010929100109238
:100420009200109271003E980895CF93DF93EC01F3
:100430001882FB011082A1EBB1E098E010928400D9
:1004400016BCE0913B02F0E0E230F10538F0EE0F2F
:10045000FF1FEE0FFF1F35973197F1F78091840052
:1004600026B580FF04C088813C91832B888320FFC0
:1004700005C0FB0180812C91822B808391501196C5
:100480009111DCCF8091490290914A02A0914B02D8
:10049000B0914C020296A11DB11D80934902909328
:1004A0004A02A0934B02B0934C02DF91CF91089582
:1004B0001092840016BCE0913B02F0E0E230F105BE
:1004C00038F0EE0FFF1FEE0FFF1F35973197F1F752
:1004D00020918400FC01208386B5FB0180838091FC
:1004E000490290914A02A0914B02B0914C020196B0
:1004F000A11DB11D8093490290934A02A0934B0223
:10050000B0934C020895FC01908191113CC084E0AD
:100510008093360287EC8093370299E1218192170C
:1005200008F44AC08081918190933A028093390205
:100530002093380290913702809136021092C000C9
:100540001092C1001092C2001092C3001092C40019
:1005500026983E988F708093C1008091C000816082
:100560008093C0008091C00080628093C0002E986C
:10057000269A9093D1002093D0001092BF00109241
:10058000BE0081E00895913029F484E08093360222
:1005900085E9C1CF923041F483E0809336028FEE3B
:1005A0008093370292E3BACF933021F490933602CE
:1005B00087ECF6CF943011F080E0089583E08093CB
:1005C00036028FE9EDCF83E491E00C94EC000F93B9
:1005D0001F93CF93DF938C01C62F80915B028430F1
:1005E000B1F48091570190915801A0915901B091B7
:1005F0005A01892B8A2B8B2B51F0809144018F70EB
:100600008093E9000E94BD00D0E0882391F0DF9143
:10061000CF911F910F9108958091E80085FD0CC046
:100620008091E8008E778093E8000E94BD008111E0
:10063000EECF209789F7EBCFF80181918F0180935E
:10064000F1002197F6CFCF9390915B029430C1F4E3
:1006500040915701509158016091590170915A0190
:10066000452B462B472B61F0C82F809144018F709A
:100670008093E9008091E80085FF04C0C093F100F9
:10068000CF9108959091E8009E779093E8000E94A2
:10069000BD00882399F3F4CFFC0180915B02843084
:1006A00011F080E008958091570190915801A09138
:1006B0005901B0915A01892B8A2B8B2B91F3909180
:1006C00049019F709093E9008091E80082FFE9CF93
:1006D0002091F3008091F200322F282F232BB1F0CC
:1006E0002091F10030E04091F3008091F200542F0E
:1006F000482F452B29F49091E8009B779093E800D0
:100700002F3F320771F2208381E008952FEF3FEFF2
:10071000EACFAF92BF92DF92EF92FF920F931F93B7
:10072000CF93DF9300D0CDB7DEB78C015B01D42E21
:10073000F894F12CE12CEA14FB0491F47894D8019C
:100740001696ED91FC9109950F900F90DF91CF9146
:100750001F910F91FF90EF90DF90BF90AF900895A1
:10076000BE016E5F7F4FCE0101960E94580281E06C
:100770008D1560F0D8011296ED91FC918981099553
:10078000D8011296ED91FC918A8108C0B3E0DB128A
:1007900007C0D8011296ED91FC918981099503C09B
:1007A000B4E0DB1669F3BFEFEB1AFB0AC4CFEF929C
:1007B000FF920F931F93CF93DF9300D0CDB7DEB797
:1007C0007C018B010E941502BE016E5F7F4FCE013E
:1007D00001960E941502F701908189818927990F5E
:1007E000911D89278083F80190818A818927990F3B
:1007F000911D892780830F900F90DF91CF911F91DA
:100800000F91FF90EF900895EF92FF920F931F9337
:10081000CF93DF9300D0CDB7DEB77C018B010E9470
:100820001502BE016E5F7F4FCE0101960E94150238
:10083000F7018081998189278083F80180819A81DD
:10084000892780830F900F90DF91CF911F910F9197
:10085000FF90EF9008952F923F924F925F926F9288
:100860007F928F929F92AF92BF92CF92DF92EF9240
:10087000FF920F931F93CF93DF93CDB7DEB7C25094
:10088000D2400FB6F894DEBF0FBECDBF80E091E03E
:100890009E012F5F3F4F1901F9019C0111922150D8
:1008A0003040E1F78E010F5F1E4FF8019C0111925D
:1008B00021503040E1F7F8947894F12CE12C412C50
:1008C000512C3201812C912C5401BE016E5F7D4F61
:1008D000CE018F5F9D4F0E941502CF5FDD4FA88133
:1008E000C150D2408A2F90E081111DC1890E911C08
:1008F000A11CB11CCE5FDD4FE881C250D2409E2FBB
:10090000911116C1480E511C611C711CA20DB32D12
:10091000B11D8C918F5F8C93E00FF12FF11D8081C1
:100920008F5F80833FEFE31AF30A85E3E8168CE0DC
:10093000F80659F67894C501B4010E94B91A20E06E
:1009400030E543EC56E40E94181A20E030E040E025
:100950005FE30E94A61920E030E048EC52E40E94D8
:10096000701B4B015C018092120190921301A092C6
:100970001401B0921501C301B2010E94B91A20E01E
:1009800030E543EC56E40E94181A20E030E040E0E5
:100990005FE30E94A61920E030E048EC52E40E9498
:1009A000701B6B017C01C0921601D0921701E0927E
:1009B0001801F092190140901A0150901B016090AB
:1009C0001C0170901D01C501B4019F77A301920124
:1009D0000E94131A18160CF4B0C0A70196015F7795
:1009E000C301B2010E946B1B87FDA7C081E0809309
:1009F00011015801C12CD12C760126013701F101DA
:100A000061911F0170E090E080E00E94B91A20E03F
:100A100030E543E451E40E94A6199B01AC010E9419
:100A2000701B20E030E543E451E40E94181A9B015A
:100A3000AC01C301B2010E94A7192B013C01F501D1
:100A400061915F0170E090E080E00E94B91A20E0BF
:100A500030E543E451E40E94A6199B01AC010E94D9
:100A6000701B20E030E543E451E40E94181A9B011A
:100A7000AC01C701B6010E94A7196B017C010215E8
:100A8000130509F0BCCF4092050150920601609217
:100A9000070170920801C0920901D0920A01E09208
:100AA0000B01F0920C0180900D0190900E01A0902E
:100AB0000F01B0901001A5019401C301B2010E9481
:100AC000131A87FF3DC0A5019401C701B6010E941A
:100AD000131A87FF35C081E08093040180911101D2
:100AE000882329F081E090910401911101C080E0F8
:100AF0008170CE5FDD4F0FB6F894DEBF0FBECDBF65
:100B0000DF91CF911F910F91FF90EF90DF90CF90E9
:100B1000BF90AF909F908F907F906F905F904F901D
:100B20003F902F9008952FEF280F82239F5FDCCEF8
:100B30002FEF290F92238F5FE3CE1092110159CF2F
:100B400010920401CBCF4F925F926F927F928F925F
:100B50009F92AF92BF92CF92DF92EF92FF920F934C
:100B60001F93CF93DF93CDB7DEB72A970FB6F894D4
:100B7000DEBF0FBECDBF81E080934802F894789429
:100B80001F82188619861A861B821C821D821E826D
:100B9000C12CD12C7601812C912C5401412C512C4B
:100BA0003201BE016F5F7F4FCE0102960E94580254
:100BB0003A81430E511C611C711C2981820E911CCB
:100BC000A11CB11CC114D104E104F10491F1432F23
:100BD000411B550BCA0157FF03C09195819591099F
:100BE000092E000CAA0BBB0B4B815C816D817E81B1
:100BF000480F591F6A1F7B1F4B835C836D837E8365
:100C0000622F601B770BCB0177FF03C09195819515
:100C10009109092E000CAA0BBB0B4F8158856985E1
:100C20007A85480F591F6A1F7B1F4F835887698732
:100C30007A875FEFC51AD50AE50AF50A890165E3E7
:100C4000C6166CE0D606E104F10409F0AACF789448
:100C5000C301B2010E94B91A20E030E543E455E433
:100C60000E94181A2B013C01409227025092280240
:100C70006092290270922A02C501B4010E94B91A39
:100C800020E030E543E455E40E94181A4B015C0172
:100C900080922B0290922C02A0922D02B0922E02F2
:100CA0006B817C818D819E810E94B91A20E030E4A5
:100CB00043E455E40E94181A6B837C838D839E83E2
:100CC00060931F0170932001809321019093220172
:100CD0006F81788589859A850E94B91A20E030E471
:100CE00043E455E40E94181A6F83788789879A87AE
:100CF0006093230170932401809325019093260132
:100D000060913B0270E090E080E00E94B91A9B0184
:100D1000AC010E94A7196B017C01C0922F02D092F6
:100D20003002E0923102F0923202AC019B01C30129
:100D3000B2010E946B1B87FD54C0A7019601C5013B
:100D4000B4010E946B1B87FD4CC081E0809326029A
:100D50008090270190902801A0902901B0902A014D
:100D6000A50194016B817C818D819E810E946B1B0A
:100D70001816D4F5A50194016F81788589859A8527
:100D80000E946B1B181684F581E080931E018091F0
:100D90002602882329F011E080911E01811101C0F3
:100DA00010E0009148020E942B04802311708123DF
:100DB000809348022A960FB6F894DEBF0FBECDBFCF
:100DC000DF91CF911F910F91FF90EF90DF90CF9027
:100DD000BF90AF909F908F907F906F905F904F905B
:100DE000089510922602B4CF10921E01D0CFDC01DC
:100DF000FB014091220250912302609124027091E4
:100E000025024D935D936D937C93139740911E0241
:100E100050911F0260912002709121024083518302
:100E20006283738310922302109222021092250291
:100E30001092240210921F0210921E0210922102A0
:100E4000109220028D919C911197892B89F4129612
:100E50008D919C91892B61F480819181892B41F442
:100E600081E022813381232B09F480E08170089591
:100E700081E0FCCFFC013081FB01208180911702D1
:100E8000381347C0809101018F5F80930101843046
:100E900048F08091220290912302019690932302C0
:100EA0008093220280911602281339C0809100019C
:100EB0008F5F80930001843048F0809124029091EC
:100EC00025020196909325028093240280911C02B2
:100ED00090911D02009749F530931B0281E08093A9
:100EE000030181E090E090931D0280931C028091A9
:100EF000190290911A020097B9F52093180281E027
:100F00008093020181E090E090931A02809319028D
:100F100008953093170281E080930101C3CF20939D
:100F2000160281E080930001D1CF40911B0234135F
:100F300011C0309103013F5F309303013D3051F404
:100F400040911E0250911F024F5F5F4F50931F024E
:100F500040931E0201968115F2E09F0721F6109240
:100F60001D0210921C02C3CF30911802231311C02E
:100F7000209102012F5F209302012D3051F4209126
:100F80002002309121022F5F3F4F309321022093A6
:100F900020020196811522E0920709F0B5CF109248
:100FA0001A0210921902089590913502911117C0FA
:100FB000E82FF0E0EE0FFF1FE555FE4F0190F081A6
:100FC000E02D64E372E083E392E0099580E1809391
:100FD000350264E372E083E392E00E943A07809175
:100FE0003302909134029C01369527953093340258
:100FF0002093330290913502915090933502817085
:1010000008959F92AF92BF92CF92DF92EF92FF929C
:101010000F931F93CF93DF9300D0CDB7DEB77C0142
:101020005B01942EF894D12CC12C022F10E0000FFC
:10103000111F05551E4FCA14DB04A1F47894D70183
:101040001696ED91FC9109950F900F90DF91CF913D
:101050001F910F91FF90EF90DF90CF90BF90AF90D6
:101060009F900895D801ED91FC91BE016E5F7F4F76
:10107000CE0101960995BE016E5F7F4FCE010196AC
:101080000E943A07B1E0B91560F0D7011296ED91D0
:10109000FC9189810995D7011296ED91FC918A8185
:1010A0000AC0B2E09B1209C099818A81D7011296C9
:1010B000ED91FC91892709950CC0B3E09B1206C005
:1010C000D7011296ED91FC918981F5CFB4E09B1682
:1010D00011F3BFEFCB1ADB0AAECF8627082E82951D
:1010E000807F8025092E982F82958F7008268695FF
:1010F00098278927880F880F880F802508958F9259
:101100009F92BF92CF92DF92EF92FF920F931F9325
:10111000CF93DF93CDB7DEB72B970FB6F894DEBF32
:101120000FBECDBF7C01B22E81E2898384E28A8327
:10113000D70150968C9150978B8351968C915197F3
:101140008C836D8353968C9153978E834F835887EE
:1011500029871496ED91FC9169E0CE0101960995DD
:10116000D7011496ED91FC916B2DC80109958FEF75
:101170009FEF9B878A876E01B3E0CB0ED11C4E0197
:10118000EAE08E0E911CD6016D916D018A859B85DA
:101190000E946D089B878A87C814D904A1F768014B
:1011A0000B0D111DC016D106F1F4D7011496ED9167
:1011B000FC9162E0C4010995D7011696ED91FC916E
:1011C00009952B960FB6F894DEBF0FBECDBFDF9109
:1011D000CF911F910F91FF90EF90DF90CF90BF9034
:1011E0009F908F900895F60161916F018A859B858C
:1011F0000E946D089B878A87D5CF6F927F928F92CE
:101200009F92AF92BF92CF92DF92EF92FF920F9395
:101210001F93CF93DF931F92CDB7DEB70BE08AE029
:10122000F82E99E0E92E28E0D22E37E0C32E46E0D2
:10123000B42E55E0A52E64E0962E73E0872EE2E0F2
:101240007E2E66246394E0915E01F0915F01CE01F1
:1012500001960995182F882309F4AEC06981E091A1
:101260006601EC3080F7F0E0E85CF64F0C944C1C23
:1012700044094B0955096209710980098F09A209BE
:10128000F0090C0A270A2F0A109270016132D9F670
:1012900060926601D8CF643219F470926601D3CFA0
:1012A0006132B1F310926601CECF60936E018FEF81
:1012B0009FEF0E946D08909369018093680180926E
:1012C0006601C1CF60936F018091680190916901BF
:1012D0000E946D0890936901809368019092660165
:1012E000B2CF6093700180916801909169010E9472
:1012F0006D089093690180936801A0926601A3CF65
:101300006093710180916801909169010E946D085C
:101310009093690180936801B092660194CF862F03
:1013200090E090936D0180936C01809168019091A1
:1013300069010E946D089093690180936801C092D1
:10134000660181CF80916C0190916D01962B9093F5
:101350006D0180936C0180916801909169010E94F8
:101360006D08909369018093680180916C01909160
:101370006D01892B91F183E08093700110926601D9
:10138000809171018B7F823049F080915C02909155
:101390005D02019690935D0280935C026091700102
:1013A000662351F010E000E020E050E040E08EE5E0
:1013B00091E00E947F0810E0812F0F90DF91CF9184
:1013C0001F910F91FF90EF90DF90CF90BF90AF9063
:1013D0009F908F907F906F900895D092660133CF49
:1013E00060937201663310F084E0C6CF809168018B
:1013F000909169010E946D08909369018093680142
:101400001092670180917201811103C0F092660110
:101410001ACFE092660117CFE091670181E08E0F4D
:1014200080936701F0E0E25AFE4F658B809168017E
:10143000909169010E946D08909369018093680101
:101440009091670180917201981700F7FCCE70E0CF
:1014500070936B0160936A0100936601F4CE8091F2
:101460006A0190916B01962B90936B0180936A01B6
:1014700020916801309169018217930709F47ECFAA
:1014800082E07ACF0F931F93CF93DF9300D0CDB735
:10149000DEB78E010F5F1F4F20915E0230915F0219
:1014A0002115310511F422E632E0A801421B530B4D
:1014B0005A83498322E050E040E060E00E947F08C8
:1014C0000F900F90DF91CF911F910F910895EF92A0
:1014D000FF920F931F93CF93DF93CDB7DEB7639740
:1014E0000FB6F894DEBF0FBECDBF7C0191E09983AB
:1014F0009A8383E08B831C821D8280E094E098872E
:101500008F831B8A9B8991609B8B9B8992609B8BAD
:101510009E83EDE2F1E0DE011996808132968D9393
:1015200081E0E134F807C9F78E010F5F1F4F22E118
:1015300050E040E060E0C7010E947F0863960FB66C
:10154000F894DEBF0FBECDBFDF91CF911F910F91F9
:10155000FF90EF9008950F931F93CF93DF9300D0E8
:101560001F92CDB7DEB72091590229832223B1F013
:1015700020914E0230E03B832A838E010F5F1F4F84
:1015800023E050E040E060E00E947F080F900F9061
:101590000F90DF91CF911F910F9108951B821A82B6
:1015A000ECCF0F931F93CF93DF93EC01109259026E
:1015B0000E940B0210E000E020E050E040E060E01C
:1015C000CE010E947F08DF91CF911F910F91089566
:1015D0004F925F926F927F929F92AF92BF92CF9203
:1015E000DF92EF92FF920F931F93CF93DF9300D080
:1015F00000D000D01F92CDB7DEB77C01DC0154963D
:101600008C918330F9F010E000E020E050E040E001
:1016100065E0C7010E947F0827960FB6F894DEBFE9
:101620000FBECDBFDF91CF911F910F91FF90EF9033
:10163000DF90CF90BF90AF909F907F906F905F9022
:101640004F900895F70185899689A7898D839E8398
:10165000AF83482F592FCA0101978115944018F480
:101660008F81833038F010E000E020E050E040E06F
:1016700066E0CFCF440F551F440F551F8E010B5FFF
:101680001F4F23E060E0C7010E947F08BF80CD802C
:10169000DE80F89410E000E0C016D10639F47894AA
:1016A000D7011696ED91FC910995B6CF5EE7A52E70
:1016B00003C0AA2031F0AA948B2D0E94D40788235E
:1016C000C1F347E1942E412C512C3201440C551C9E
:1016D000661C771C8B2D0E94D407482A9A9491107F
:1016E000F5CF8A2DAA0C990BAA0BBB0B27E1880F0B
:1016F000991FAA1FBB1F2A95D1F784299529A629CE
:10170000B72989839A83AB83BC83D7011496ED9163
:10171000FC9164E0CE01019609950F5F1F4FBCCF8D
:101720002F923F924F925F926F927F928F929F92F1
:10173000AF92BF92CF92DF92EF92FF920F931F93DF
:10174000CF93DF93CDB7DEB72B970FB6F894DEBFFC
:101750000FBECDBF7C01DC0154968C91833011F11A
:1017600010E000E020E050E040E065E0C7010E94AA
:101770007F082B960FB6F894DEBF0FBECDBFDF916A
:10178000CF911F910F91FF90EF90DF90CF90BF907E
:10179000AF909F908F907F906F905F904F903F9011
:1017A0002F900895F70185899689A78989879A8757
:1017B000AB87482F592FCA0101978115924018F421
:1017C0008B85833038F010E000E020E050E040E00E
:1017D00066E0CCCF440F551F440F551F8E01075FA5
:1017E0001F4F23E060E0C7010E947F082B844984DB
:1017F0005A84F894712C612C312C220C331CC101B9
:1018000085559E4F1C016414750408F051C010E00A
:1018100000E0D1018D909C90AA24A394B12CAC0E31
:10182000BD1EA00EB11E95E0C92ED12CCC0EDD1E22
:10183000C00ED11EB501C601F4010995B501C6015E
:101840000E943A070F5F1F4F0330110529F76D8182
:101850007E818F8198858F77992780689F6320E0AC
:1018600030E040E85FE30E94A6196D837E838F839A
:10187000988769817A818B819C818F77992780688D
:101880009F6320E030E040E85FE30E94A61969838F
:101890007A838B839C83D7011496ED91FC9164E04D
:1018A000CE0105960995C30101964816590639F4EB
:1018B0007894D7011696ED91FC9109955ACFB2E034
:1018C0006B0E711CD7011496ED91FC9164E0CE0172
:1018D0000196099598CF4F925F926F927F928F9267
:1018E0009F92AF92BF92CF92DF92EF92FF920F93AF
:1018F0001F93CF93DF93CDB7DEB72A970FB6F89437
:10190000DEBF0FBECDBF7C01DC0154968C918530CB
:1019100001F110E000E020E050E040E065E0C701A8
:101920000E947F082A960FB6F894DEBF0FBECDBF87
:10193000DF91CF911F910F91FF90EF90DF90CF90AB
:10194000BF90AF909F908F907F906F905F904F90DF
:10195000089585E0F7017596DE01119601900D92CC
:101960008A95E1F749815A81CA010197811594400E
:1019700038F48B819C81892B19F08D81833038F06C
:1019800010E000E020E050E040E066E0C8CF440F07
:10199000551F8E010F5F1F4F25E060E0C7010E94B9
:1019A0007F084D80AB80BC8069807A80A114B1042F
:1019B00009F472C0EFEFAE16BE0609F472C09501CD
:1019C00080E0369527958F5F21153105D1F701E02D
:1019D00010E002C0000F111F8A95E2F701501109B3
:1019E000FFEFAF16B10409F008F460C022E02A87C7
:1019F000F894D12CC12C512C440C551CF201E55506
:101A0000FE4F2F01C614D70408F03FC0D2018D90BD
:101A10009C90BE016A5F7F4FCE010896F401099544
:101A2000BE016A5F7F4FCE0108960E943A07FA8591
:101A3000F23071F4BE01695F7F4FCE010996F40167
:101A40000995BE01695F7F4FCE0109960E943A0752
:101A50008885998580239123998788872E813F8166
:101A6000202331233F832E83A816B90610F1FFEF00
:101A7000CF1ADF0AD7011496ED91FC9162E0CE01F6
:101A8000089609956C147D04A1F47894D7011696F4
:101A9000ED91FC91099546CF10E000E081E08A8746
:101AA000A7CF0FEF1FEF92E09A87A2CFA1E0AA87FE
:101AB0009FCF8E819F81A816B90608F4A3CFBFEFF0
:101AC000CB1ADB0AD7011496ED91FC9162E0CE01AE
:101AD0000696099597CF8F929F92AF92BF92CF9221
:101AE000DF92EF92FF920F931F93CF93DF9300D07B
:101AF00000D000D0CDB7DEB77C01DC0154968C91CC
:101B00008430E1F010E000E020E050E040E065E0EB
:101B1000C7010E947F0826960FB6F894DEBF0FBE5D
:101B2000CDBFDF91CF911F910F91FF90EF90DF908C
:101B3000CF90BF90AF909F908F900895F7018589C7
:101B40009689A789B08D89839A83AB83BC83482FFC
:101B5000592FCA0101978115984030F48B81882351
:101B600019F08C81833038F010E000E020E050E084
:101B700040E066E0CDCF8E010F5F1F4F24E060E0B4
:101B8000C7010E947F08CC800B8189809A8010E079
:101B9000002371F0802F20E086952F5F8111FCCF0C
:101BA00081E090E001C0880F2A95EAF71FEF180F37
:101BB000F894B12CA12CD12CCC0CDD1CC601855580
:101BC0009E4F6C01A814B90418F5D601ED91FC9153
:101BD000BE016B5F7F4FCE0106960995BE016B5F1C
:101BE0007F4FCE0106960E943A078E8181238E8315
:101BF0009D8191239D83081790F0BFEFAB1ABB0A1C
:101C0000D7011296ED91FC9109958A149B0439F441
:101C10007894D7011696ED91FC9109957CCF8D8132
:101C2000081780F2BFEFAB1ABB0AD7011296ED91ED
:101C3000FC910995C7CFEF92FF920F931F93CF931B
:101C4000DF9300D000D0CDB7DEB77C01FC018489E2
:101C50008430A1F010E000E020E050E040E065E0DA
:101C6000C7010E947F080F900F900F900F90DF9197
:101C7000CF911F910F91FF90EF90089585899689DC
:101C8000A789B08D89839A83AB83BC839C01215043
:101C900031092115344030F42B81253018F43C8172
:101CA000333038F010E000E020E050E040E066E043
:101CB000D7CF2230C8F021E030E0829FA001839F7F
:101CC000500D929F500D11248E010F5F1F4F24E085
:101CD00060E0C7010E947F0869817A812C814B8175
:101CE000C7010E940108BFCF22E030E0E6CFEF92AB
:101CF000FF920F931F93CF93DF931F92CDB7DEB761
:101D00007C01DC0154968C91813089F010E000E078
:101D100020E050E040E065E0C7010E947F080F909E
:101D2000DF91CF911F910F91FF90EF900895F701F0
:101D300085898983853038F010E000E020E050E0AC
:101D400040E066E0E9CF41E050E0823010F442E04C
:101D500050E08E010F5F1F4F21E060E0C7010E943D
:101D60007F082981F8941092840016BC80913B0270
:101D700090E08230910538F0880F991F880F991FE5
:101D800005970197F1F79091840036B5892F8170FE
:101D9000132F11704091490250914A0260914B02F9
:101DA00070914C024F5F5F4F6F4F7F4F40934902DE
:101DB00050934A0260934B0270934C02223058F4C5
:101DC000D7011296ED91FC910995D7011296ED91EC
:101DD000FC91812F09C0223049F4892F8327D70134
:101DE0001296ED91FC918170099509C0233029F478
:101DF000D7011296ED91FC91F7CF243031F378940E
:101E0000D7011696ED91FC91099589CFEF92FF923B
:101E10000F931F93CF93DF9300D01F92CDB7DEB700
:101E20007C01FC018489833099F010E000E020E01F
:101E300050E040E065E0C7010E947F080F900F90DE
:101E40000F90DF91CF911F910F91FF90EF90089528
:101E500085899689A78989839A83AB839C012150C0
:101E600031092115344028F42B81253010F422301B
:101E700039F410E000E020E050E040E066E0DBCF25
:101E80002230C0F021E030E0829FA001839F500DFE
:101E9000929F500D11248E010F5F1F4F23E060E0D1
:101EA000C7010E947F0869817A814B81C7010E9426
:101EB0008903C4CF22E030E0E7CF0F931F93FC01EA
:101EC000248910E000E0213049F020E050E040E0BB
:101ED00065E00E947F081F910F91089520E050E077
:101EE00040E060E0F6CFEF92FF920F931F93CF9305
:101EF000DF9300D01F92CDB7DEB77C01FC0184894F
:101F0000833099F010E000E020E050E040E065E030
:101F1000C7010E947F080F900F900F90DF91CF9123
:101F20001F910F91FF90EF900895858926899789D9
:101F300089832A839B838530A0F4222391F09923FF
:101F400081F0CE0101960E948302882351F08B819B
:101F500080933B0210E000E020E050E040E060E0D1
:101F6000D7CF10E000E020E050E040E066E0D0CFC6
:101F70000F931F93CF93DF9300D01F92CDB7DEB79F
:101F80002091390230913A0240913B0229833A83F1
:101F90004B838E010F5F1F4F23E050E040E060E075
:101FA0000E947F080F900F900F90DF91CF911F91AB
:101FB0000F9108950F931F93CF93DF93CDB7DEB7A3
:101FC000E5970FB6F894DEBF0FBECDBF2091480253
:101FD00029832DE0E6E2F2E0DE01129601900D92F7
:101FE0002A95E1F72DE0EEE1F1E0DE011F96019088
:101FF0000D922A95E1F72DE0E1E1F1E0DE015C963A
:1020000001900D922A95E1F72DE0E4E0F1E0DE0188
:10201000999601900D922A95E1F78E010F5F1F4F5F
:1020200025E350E040E060E00E947F08E5960FB6AF
:10203000F894DEBF0FBECDBFDF91CF911F910F91FE
:102040000895CF93DF93EC010E94A305CE01DF91A9
:10205000CF910C94DA0FEF92FF920F931F93CF93CF
:10206000DF93CDB7DEB729970FB6F894DEBF0FBE6A
:10207000CDBF7C01BE016A5F7F4FCE0102960E94F8
:10208000F70689838E010F5F1F4F29E050E040E083
:1020900060E0C7010E947F0829960FB6F894DEBF62
:1020A0000FBECDBFDF91CF911F910F91FF90EF90A9
:1020B0000895AF92BF92CF92DF92EF92FF920F936B
:1020C0001F93CF93DF93CDB7DEB761970FB6F89428
:1020D000DEBF0FBECDBF7C01FC0184898230D1F010
:1020E00010E000E020E050E040E065E0C7010E9421
:1020F0007F0861960FB6F894DEBF0FBECDBFDF91AB
:10210000CF911F910F91FF90EF90DF90CF90BF90F4
:10211000AF900895A588C68880915C0290915D0279
:102120009A8389838091490290914A02A0914B023F
:10213000B0914C028B839C83AD83BE83BE01645FF0
:102140007F4FCE0108960E94F7068F83A88AC98A1E
:10215000B12CD12CA5014C0D5D1D440F551F8E01D6
:102160000F5F1F4F21E160E0C7010E947F0840E040
:10217000B501C7010E94890320E040E0B601C70114
:102180000E94010810925D0210925C0210924902B6
:1021900010924A0210924B0210924C02AACF0F9357
:1021A0001F93CF93DF9300D000D000D0CDB7DEB720
:1021B00020915C0230915D023A832983409149026B
:1021C00050914A0260914B0270914C024B835C83A8
:1021D0006D837E838E010F5F1F4F26E050E040E04D
:1021E00060E00E947F0810925D0210925C021092E3
:1021F000490210924A0210924B0210924C0226960B
:102200000FB6F894DEBF0FBECDBFDF91CF911F9107
:102210000F9108950F931F9310E000E020E050E02D
:1022200040E060E00E947F081F910F910895CF93D6
:10223000DF93EC0184E090E00E948619888385E0BA
:1022400090E00E948619898386E090E00E948619BA
:102250008A83DF91CF910895CF93DF9300D01F92AF
:10226000CDB7DEB7CE0101960E9417118B8188236E
:1022700049F080933B0281E00F900F900F90DF9127
:10228000CF9108958AE0F5CFEF92FF920F931F93BD
:10229000CF93DF9300D01F92CDB7DEB77C01CE0184
:1022A00001960E9417118E010F5F1F4F23E050E02F
:1022B00040E060E0C7010E947F080F900F900F90F0
:1022C000DF91CF911F910F91FF90EF9008951F9391
:1022D000CF93DF93CDB7DEB7AA970FB6F894DEBFE2
:1022E0000FBECDBFECE3F2E084E492E02091F10078
:1022F00021938E179F07D1F78091E80083FF11C0CB
:1023000020914301809140029091410228171906C3
:1023100041F480913D02813261F1F0F4803209F4A0
:1023200064C08091E80083FFD9C080913C02909105
:102330003D029A3008F0D2C0E92FF0E0EE55FE4E93
:102340000C944C1C411267126E1267126E12C51269
:10235000E7126E12C313D013823209F479C08332AC
:1023600001F780913C028132E1F68091E800877F9D
:1023700037C080913C02813AA1F68091E800877FC6
:102380008093E8008091E80080FFFCCF80915701A6
:1023900090915801A0915901B0915A018093F10098
:1023A000492F5A2F6B2F77274093F100AD016627F5
:1023B00077274093F1008B2F9927AA27BB2780937B
:1023C000F10080915B018093F10080915C0180932A
:1023D000F10080915D018093F1008091E8008E779B
:1023E0008093E8000E942F019CCF80913C028132B3
:1023F00009F097CF8091E800877F8093E800809173
:10240000E80082FF20C03091F1002091F10090910E
:10241000F1008091F100309357012093580190937F
:10242000590180935A018091F10080935B01809162
:10243000F10080935C018091F10080935D018091B7
:10244000E8008B77CDCF80915B028111D8CF69CF27
:1024500080913C02813209F064CF8091E800877F4F
:102460008093E8000E942F0180913E0290913F02EC
:10247000809353019093540180FD53CF10925902E1
:1024800050CF803889F0823849F5809140028F70B2
:10249000873020F58093E9008091EB0085FB882749
:1024A00080F91092E90006C08091440290914502A3
:1024B000911182609091E800977F9093E80080935B
:1024C000F1001092F1008091E8008E772DC0282F46
:1024D0002D7F21F48823D1F0823059F18091E800DA
:1024E00083FF0AC08091E800877F8093E800809195
:1024F000EB0080628093EB00AA960FB6F894DEBFE3
:102500000FBECDBFDF91CF911F91089580913E0204
:10251000813021F7933009F080E0809345021092DA
:10252000E9008091E800877F8093E8000E942F01F6
:10253000D5CF80913E028111F2CF809140028F7001
:102540002FEF280F263050F68093E9002091EB0002
:1025500020FFE5CF933031F48091EB0080628093CF
:10256000EB00DDCF9091EB0090619093EB0021E0C8
:1025700030E001C0220F8A95EAF72093EA0010921A
:10258000EA008091EB008860EACF8111A7CF10911B
:102590003E021F778091E3008078812B8093E300D7
:1025A0008091E800877F8093E8000E942F0180914E
:1025B000E80080FFFCCF8091E30080688093E30017
:1025C00083E0111101C082E080935B0287CF8058C5
:1025D000823008F083CF80913E0290913F028C3D83
:1025E00023E0920779F583E08A838AE289834FB7F3
:1025F000F894DE01139620E03EE051E2E32FF0E094
:1026000050935700E49120FF03C0E295EF703F5FC5
:10261000EF708E2F90E0EA3098F0C7968D939D93DF
:102620002F5F243159F74FBF8091E800877F809357
:10263000E8006AE270E0CE0101960E94AC0135C06C
:10264000C096ECCF292F33272230310509F4E5C09D
:102650002330310581F12130310509F03FCF82E18E
:1026600090E0EAEEF0E02091E800277F2093E80078
:1026700020914202309143028217930708F49C0193
:1026800040E02115310509F04BC0411149C080914E
:10269000E80082FD0AC080915B02882331F085301A
:1026A00021F08091E80083FFF2CF8091E8008B77E2
:1026B0008093E80013CF99278130910509F1A8F0A4
:1026C0008230910529F1039709F008CF60912B0121
:1026D00070E06115710509F401CF8091E800877FF2
:1026E0008093E8008BE291E0A8CFE8E3F1E0E49189
:1026F0008E2F90E0E8E3F1E0009709F4EFCEB3CF3E
:10270000E6E1F1E0E4918E2F90E0E6E1F1E0F4CF34
:10271000ECEFF0E0E4918E2F90E0ECEFF0E0ECCF06
:1027200080915B02882309F4C0CF853009F4BDCFC6
:102730008091E80083FDB9CF8091E80082FDA7CFAA
:102740008091E80080FF9DCF8091F3009091F2008E
:102750008927982789272115310519F08830910597
:1027600050F041E0089709F040E08091E8008E7752
:102770008093E80086CF44914093F1003196215038
:1027800031090196E8CF803809F0A8CE8091E800A1
:10279000877F8093E800809146028093F10093CE7A
:1027A00081119CCE10913E02123008F097CE80919C
:1027B000E800877F8093E800109346020E942F0173
:1027C000112329F184E080935B02E3E5F1E08BE0E3
:1027D000DF011D928A95E9F782E08093470180939B
:1027E0004C0183E08093510184E491E00E948101D7
:1027F000882309F473CE89E491E00E948101882343
:1028000009F46CCE8EE491E00E94810167CE809144
:10281000E30087FDD7CF81E0D6CF8EE390E0ECEAEE
:10282000F0E021CFCF9380915B02882399F0C09193
:10283000E900CF708091EC0080FD0EC080E0C82BD5
:102840001092E9008091E80083FD0E946711CF702B
:10285000C093E900CF91089580E8F1CFCF93DF9343
:10286000EC01688184E090E00E948E19698185E026
:1028700090E00E948E196A8186E090E0DF91CF910E
:102880000C948E19EF92FF920F931F93CF93DF93C7
:1028900000D01F92CDB7DEB77C01FC018489833064
:1028A00099F010E000E020E050E040E065E0C70172
:1028B0000E947F080F900F900F90DF91CF911F9192
:1028C0000F91FF90EF9008958589268997898983D4
:1028D0002A839B838530C0F42223B1F09923A1F091
:1028E000CE0101960E948302882371F08B81809330
:1028F0003B02CE0101960E942E1410E000E020E081
:1029000050E040E060E0D3CF10E000E020E050E095
:1029100040E066E0CCCFCF93DF9300D01F92CDB7DD
:10292000DEB762E590E080E00E948E1961E481E00C
:1029300090E00E948E1966E582E090E00E948E1978
:1029400061E483E090E00E948E198091A80190914B
:10295000A901A091AA0189839A83AB83CE01019634
:102960000E942E140F900F900F90DF91CF91089539
:10297000EF92FF920F931F93CF93DF9300D000D07D
:10298000CDB7DEB77C0110E000E06FEF7FEFC8014C
:102990000E94A0190E5F1F4F011584E01807A9F7C8
:1029A0000E948B1481E08C83CE0101960E94171146
:1029B000CE0101960E9483029C8189238C830E9410
:1029C0002C119C8189238C838E010C5F1F4F21E089
:1029D00050E040E060E0C7010E947F080F900F9038
:1029E0000F900F90DF91CF911F910F91FF90EF907B
:1029F0000895EF92FF920F931F93CF93DF9300D030
:102A0000CDB7DEB77C018EE580937C0080917B00A2
:102A10008F7D80937B0087E880937A008FE39FE12E
:102A20000197F1F700C0000080917A0080648093E4
:102A30007A0080917A0086FDFCCF80917A008064D4
:102A400080937A0080917A0086FDFCCF20917800F7
:102A50003091790010927C0010927A0010927B00E5
:102A600010BE50E040E064EB7BE281E190E00E9428
:102A70002A1C3A8329838E010F5F1F4F22E050E00A
:102A800040E060E0C7010E947F080F900F90DF9147
:102A9000CF911F910F91FF90EF9008950F931F9387
:102AA000CF93DF9300D0CDB7DEB7FC0187EC8093E6
:102AB0007C0090917B00906290937B0087E88093EC
:102AC0007A008FE39FE10197F1F700C00000909139
:102AD0007A00906490937A0080917A0086FDFCCF12
:102AE00090917A00906490937A0080917A0086FDAC
:102AF000FCCF809178009091790010927C00109228
:102B00007A0010927B0010BE9A8389838E010F5F3A
:102B10001F4F22E050E040E060E0CF010E947F08BC
:102B20000F900F90DF91CF911F910F910895CF9249
:102B3000DF92EF92FF920F931F93CF93DF93EC01FD
:102B40008C89863091F010E000E020E050E040E019
:102B500065E0CE010E947F08DF91CF911F910F9118
:102B6000FF90EF90DF90CF9008952D893E89C901A5
:102B700001978115944078F40F89188D8091550242
:102B8000909156028017910730F0898D853018F4A6
:102B90009A8D933038F010E000E020E050E040E003
:102BA00066E0D7CF40915902442339F010E000E0AD
:102BB00020E050E040E068E0CCCF488940934D02EF
:102BC000498940934E02D0935002C0934F023093F4
:102BD0005202209351021093540200935302909397
:102BE00057028093580281E0809359020115110524
:102BF00049F480935A0210E000E020E050E040E009
:102C000060E0A7CF0E940B020132110568F582E057
:102C100080939100C12CD12C3AEFE32E34E4F32EB3
:102C2000B80190E080E00E94B91AA70196010E94C5
:102C3000701B0E94DD1B0E948A1A615071097093FB
:102C40009900609398008091910088608093910032
:102C500080917100826080937100109295001092B3
:102C6000940010925A02C7CF073081E0180750F441
:102C700083E080939100C12CD12C2AE7E22E23E43B
:102C8000F22ECECF093144E0140750F484E0809353
:102C90009100C12CD12C9AE7E92E92E4F92EC0CFF5
:102CA00070E060E0033680E1180748F685E0809325
:102CB0009100C12CD12C8AE7E82E81E4F82EB0CF08
:102CC0001F920F920FB60F9211248F9381E0809381
:102CD0005A028F910F900FBE0F901F9018951F9260
:102CE0000F920FB60F9211240F900FBE0F901F90EE
:102CF00018951F920F920FB60F9211240F900FBECE
:102D00000F901F9018951F920F920FB60F921124DB
:102D10000F900FBE0F901F9018951F920F920FB635
:102D20000F9211240F900FBE0F901F9018951F92B5
:102D30000F920FB60F9211240F900FBE0F901F909D
:102D400018951F920F920FB60F9211240F900FBE7D
:102D50000F901F9018951F920F920FB60F9211248B
:102D60002F933F934F935F936F937F938F939F9393
:102D7000AF93BF93CF93EF93FF93C091E900CF70D0
:102D80008091EC001092E9008091F000877F8093A1
:102D9000F00078940E9467111092E9008091F00091
:102DA00088608093F000C093E900FF91EF91CF918C
:102DB000BF91AF919F918F917F916F915F914F9153
:102DC0003F912F910F900FBE0F901F9018951F925B
:102DD0000F920FB60F9211242F933F934F935F934F
:102DE0006F937F938F939F93AF93BF93EF93FF93D3
:102DF0008091E10082FF09C08091E20082FF05C05E
:102E00008091E1008B7F8093E1008091DA0080FF68
:102E100010C08091D80080FF0CC08091DA008E7FB6
:102E20008093DA008091D90080FF7DC081E080939B
:102E30005B028091E10080FF16C08091E20080FF7C
:102E400012C08091E2008E7F8093E2008091E200C8
:102E500080618093E2008091D80080628093D800E6
:102E600085E080935B028091E10084FF20C0809127
:102E7000E20084FF1CC08091D8008F7D8093D80031
:102E80008091E1008F7E8093E1008091E2008F7E4F
:102E90008093E2008091E20081608093E200809163
:102EA0004602882309F442C084E080935B0280914B
:102EB000E10083FF27C08091E20083FF23C080915F
:102EC000E100877F8093E10082E080935B021092B3
:102ED00046028091E1008E7F8093E1008091E200C4
:102EE0008E7F8093E2008091E20080618093E20017
:102EF00042E060E080E00E944E018091F000886036
:102F00008093F000FF91EF91BF91AF919F918F91CE
:102F10007F916F915F914F913F912F910F900FBED5
:102F20000F901F90189510925B0283CF8091E30061
:102F300087FD02C081E0B9CF83E0B7CFCF93DF93A5
:102F400000D000D000D0CDB7DEB784B7877F84BF74
:102F500080E830E020E00FB6F89480936100209381
:102F600061000FBE80916400846080936400809152
:102F70006400806880936400809165008160809324
:102F80006500ABE2B1E04FE050E061E2FA0160932E
:102F900057008491319760935700E4918E27EE0F8C
:102FA000E11D8E27282F22952F702A3008F03EC170
:102FB000205D30E013963C932E9312978F708A30E9
:102FC00008F036C1805D90E015969C938E9314971F
:102FD0004E5F5F4F149649315105C1F619BC12BEC0
:102FE00089B5806189BD82B78A6082BF82B78063FC
:102FF00082BF82B7806482BF89B5826089BD09B40F
:1030000000FEFDCF8091D8008F7E8093D800809104
:10301000D70081608093D70081E080934702809140
:10302000D8008E7F8093D8001092E2001092DA00D0
:103030001092E1008091D8008F778093D800809122
:10304000D80080688093D8008091D8008F7D8093CD
:10305000D80010925B021092460210924502109224
:1030600044028091E0008B7F8093E0008091D80043
:1030700081608093D80042E060E080E00E944E01D1
:103080008091E1008E7F8093E1008091E200816079
:103090008093E2008091E20088608093E20080915A
:1030A000E0008E7F8093E0008091D8008061809363
:1030B000D800789410E000E0C8010E9486198F3F84
:1030C00039F40F5F1F4F04311105B1F70E948B14C3
:1030D000CE0101960E941711CE0101960E94830233
:1030E00014BC15BC10926E0087E085BD1092800064
:1030F000109281001092820010926F0080938100E4
:103100000E942C1182E690E1909356028093550222
:103110000E94A30580914802882309F48BC0109275
:10312000490210924A0210924B0210924C0240E166
:10313000F42E0E94FD08882379F0209171012D3230
:1031400008F4C8C010E000E020E050E040E061E09A
:103150008EE591E00E947F0880915902882309F44E
:103160004EC080915A02882309F449C0209151022F
:10317000309152023A8329838091530290915402F4
:103180009C838B83809158028D83909157029E83FC
:10319000823008F0B5C082E090E0E0914F02F091FB
:1031A000500240914D02408B40914E02418BF38A78
:1031B000289FA001299F500D389F500D11248E018A
:1031C0000F5F1F4F26E060E0CF010E947F086091F3
:1031D0005102709152022091570240915802809101
:1031E0004F02909150020E940108809153029091E9
:1031F0005402892B09F087C081E080935A028091A4
:103200005B02843081F48091570190915801A09124
:103210005901B0915A01892B8A2B8B2B21F083E421
:1032200091E00E9421010E94121483CF295AC1CE3D
:10323000895AC9CE0E94A3058091480281116FCF9F
:103240000E94FD08882341F0809171018130D9F4FA
:103250008EE591E00E94670A80915B02843081F4E0
:103260008091570190915801A0915901B0915A0154
:10327000892B8A2B8B2B21F083E491E00E94210182
:103280000E941214D9CF823029F48EE591E00E9479
:10329000CF10E2CF833229F48EE591E00E94B8147A
:1032A000DBCF8E3129F48EE591E00E942110D4CF3E
:1032B0008F3129F48EE591E00E94DA0FCDCF10E036
:1032C00000E020E050E040E067E08EE591E00E9401
:1032D0007F08C2CF822F90E0880F991FFC01233214
:1032E00060F4E353FE4F0190F081E02D309709F434
:1032F00029CF8EE591E009952FCFED58FE4FF3CF02
:1033000081E090E04ACF10925A0279CFF999FECF2E
:1033100092BD81BDF89A992780B50895262FF99915
:10332000FECF92BD81BDF89A019700B4021639F024
:103330001FBA20BD0FB6F894FA9AF99A0FBE0895F5
:103340000196272F0E948F190C948E195058BB2775
:10335000AA270E94BE190C94311B0E94231B38F02F
:103360000E942A1B20F039F49F3F19F426F40C9494
:10337000201B0EF4E095E7FB0C941A1BE92F0E942A
:10338000421B58F3BA17620773078407950720F0AA
:1033900079F4A6F50C94641B0EF4E0950B2EBA2F6D
:1033A000A02D0B01B90190010C01CA01A00111244B
:1033B000FF27591B99F0593F50F4503E68F11A16F7
:1033C000F040A22F232F342F4427585FF3CF469588
:1033D00037952795A795F0405395C9F77EF41F16AA
:1033E000BA0B620B730B840BBAF09150A1F0FF0F74
:1033F000BB1F661F771F881FC2F70EC0BA0F621F60
:10340000731F841F48F4879577956795B795F7954F
:103410009E3F08F0B0CF9395880F08F09927EE0FE4
:103420009795879508950E94F61A08F481E008950B
:103430000E942C1A0C94311B0E942A1B58F00E94E7
:10344000231B40F029F45F3F29F00C941A1B511103
:103450000C94651B0C94201B0E94421B68F399235B
:10346000B1F3552391F3951B550BBB27AA27621780
:103470007307840738F09F5F5F4F220F331F441F8D
:10348000AA1FA9F335D00E2E3AF0E0E832D09150C1
:103490005040E695001CCAF72BD0FE2F29D0660FAE
:1034A000771F881FBB1F261737074807AB07B0E8F1
:1034B00009F0BB0B802DBF01FF2793585F4F3AF0F7
:1034C0009E3F510578F00C941A1B0C94651B5F3FCE
:1034D000E4F3983ED4F3869577956795B795F7957D
:1034E0009F5FC9F7880F911D9695879597F9089565
:1034F000E1E0660F771F881FBB1F62177307840701
:10350000BA0720F0621B730B840BBA0BEE1F88F70F
:10351000E09508950E944A1B88F09F5798F0B92FB4
:103520009927B751B0F0E1F0660F771F881F991FF8
:103530001AF0BA95C9F714C0B13091F00E94641B1B
:10354000B1E008950C94641B672F782F8827B85F2B
:1035500039F0B93FCCF3869577956795B395D9F750
:103560003EF490958095709561957F4F8F4F9F4F5A
:103570000895E89409C097FB3EF490958095709566
:1035800061957F4F8F4F9F4F9923A9F0F92F96E9AF
:10359000BB279395F695879577956795B795F11124
:1035A000F8CFFAF4BB0F11F460FF1BC06F5F7F4FC1
:1035B0008F4F9F4F16C0882311F096E911C07723D3
:1035C00021F09EE8872F762F05C0662371F096E8DC
:1035D000862F70E060E02AF09A95660F771F881FAB
:1035E000DAF7880F9695879597F90895990F00084F
:1035F000550FAA0BE0E8FEEF16161706E807F907C5
:10360000C0F012161306E407F50798F0621B730B5F
:10361000840B950B39F40A2661F0232B242B252BE0
:1036200021F408950A2609F4A140A6958FEF811D83
:10363000811D089597F99F6780E870E060E0089524
:103640009FEF80EC089500240A94161617061806BA
:103650000906089500240A94121613061406050696
:103660000895092E0394000C11F4882352F0BB0F27
:1036700040F4BF2B11F460FF04C06F5F7F4F8F4F8A
:103680009F4F089557FD9058440F551F59F05F3FC5
:1036900071F04795880F97FB991F61F09F3F79F074
:1036A00087950895121613061406551FF2CF4695F6
:1036B000F1DF08C0161617061806991FF1CF869578
:1036C0007105610508940895E894BB27662777275C
:1036D000CB0197F908950E94F61A08F48FEF089528
:1036E0000E94831B0C94311B0E94231B38F00E9404
:1036F0002A1B20F0952311F00C941A1B0C94201B0C
:1037000011240C94651B0E94421B70F3959FC1F31A
:10371000950F50E0551F629FF001729FBB27F00D7F
:10372000B11D639FAA27F00DB11DAA1F649F6627D4
:10373000B00DA11D661F829F2227B00DA11D621F23
:10374000739FB00DA11D621F839FA00D611D221FDD
:10375000749F3327A00D611D231F849F600D211DC1
:10376000822F762F6A2F11249F5750409AF0F1F044
:1037700088234AF0EE0FFF1FBB1F661F771F881FAD
:1037800091505040A9F79E3F510580F00C941A1BB0
:103790000C94651B5F3FE4F3983ED4F386957795D0
:1037A0006795B795F795E7959F5FC1F7FE2B880F53
:1037B000911D9695879597F908950E944A1BE8F008
:1037C0009E37E8F09639B8F49E3848F4672F782F82
:1037D0008827985FF9CF8695779567959395953962
:1037E000D0F3B62FB1706B0F711D811D20F487953A
:1037F0007795679593950C94011C0C941C1C0C9464
:10380000651B882371F4772321F09850872B762F3E
:1038100007C0662311F499270DC09051862B70E0E4
:1038200060E02AF09A95660F771F881FDAF7880FF5
:103830009695879597F908959F3F31F0915020F420
:10384000879577956795B795880F911D969587957C
:1038500097F90895A1E21A2EAA1BBB1BFD010DC00A
:10386000AA1FBB1FEE1FFF1FA217B307E407F50730
:1038700020F0A21BB30BE40BF50B661F771F881F0C
:10388000991F1A9469F760957095809590959B01A2
:10389000AC01BD01CF010895EE0FFF1F0590F4911B
:0838A000E02D0994F894FFCF1C
:1038A80001010101000000000000000000B87EB521
:1038B80043000000000000000000E5D0B23F000017
:1038C800000000000000006666663F160330003105
:1038D8000032003300340035003600370038003934
:1038E800000000008340000002044000000282083B
:1038F80000000100000000000000000000004C0370
:103908002303E702E30200000000000000000000BB
:10391800000000000000000000000000000000009F
:10392800000000000000000000000000000000008F
:10393800000000000000000000000000000000007F
:10394800000000000000000002140A15020404D759
:10395800030102040810204080B8144411421400E6
:10396800000000000000000000000000000A1167CD
:103978000ACF10420A4E15F9145910000000000031
:1039880000B80F730F5D0F060F770E1B0E00006B4C
:103998000D6B0C900BE80A00000000000000009777
:1039A80015AB0AD10A000000002110DA0F2B100015
:0439B800000000000B
:00000001FF
